:020000040800F2
:10000000C029002005010008232900084128000814
:100010002129000817190008E33200080000000039
:10002000000000000000000000000000152E000885
:10003000191900080000000045290008172E0008C3
:100040001F0100081F0100081F0100081F01000810
:100050001F0100081F0100081F0100081F01000800
:100060001F0100081F0100081F0100081F010008F0
:100070001F0100081F0100081F0100081F010008E0
:100080001F0100081F0100081F0100081F010008D0
:100090001F0100081F0100081F0100081F010008C0
:1000A0001F0100081F0100081F0100081F010008B0
:1000B0001F0100081F0100081F0100081F010008A0
:1000C0001F0100081F0100081F0100081F01000890
:1000D0001F010008113200081F0100081F0100085D
:1000E0001F0100081F0100081F010008DFF810D0E1
:1000F00000F094F800480047AD4C0008AFF30080D2
:10010000C02900200648804706480047FEE7FEE772
:10011000FEE7FEE7FEE7FEE7FEE7FEE7FEE7FEE7B7
:10012000692E0008ED000008202A04DB203A21FA9D
:1001300002F00021704721FA02F3D040C2F1200200
:100140009140084319467047D2B201E000F8012BF4
:10015000491EFBD270470022F6E710B513460A4647
:1001600004461946FFF7F0FF204610BD421C10F868
:10017000011B0029FBD1801A704710B54843044683
:1001800003F0EEF8002805D00021002C02D0641EF8
:100190000155FAE710BD2DE9F05F054600209246B3
:1001A0009B4688460646814640241BE02846414639
:1001B00047462246FFF7B8FF53465A46C01A9141B8
:1001C00010D311461846224600F03AF82D1A67EB74
:1001D00001084F4622460120002100F031F817EBBC
:1001E00000094E41201EA4F10104DFDC48463146DF
:1001F0002A464346BDE8F09F40EA01039B0703D02F
:1002000009E008C9121F08C0042AFAD203E011F855
:10021000013B00F8013B521EF9D27047064C074DD6
:1002200006E0E06840F0010394E8070098471034C6
:10023000AC42F6D3FFF75EFF1853000838530008AE
:10024000202A04DB203A00FA02F100207047914096
:10025000C2F1200320FA03F31943904070470000D5
:100260002DE9FF411FA30E46B8CB8DE8B800002151
:100270001B4A00E0491C9268002AFBD101608800FB
:1002800003F06EF8164C0025306021E02068012153
:1002900001EB400003F064F82268002100F812101E
:1002A0000A4669460DE063689B5C01EB131703F097
:1002B0000F033F7800F8127000EB4207CB5C7B70B5
:1002C000521C23689342EED8316841F825006D1C1A
:1002D000A468002CDAD104B00020BDE8F081000051
:1002E000CC00002030313233343536373839616252
:1002F0006364656610B501460122134803F018FFD8
:1003000010B16FF0050010BD00F086FE0028FAD194
:100310000EA002F0E7FF00F0BFF900F075FF002823
:10032000F1D100F063F800F03BFB0446064803F00F
:1003300079FD34B104F0D0FB0EA002F0D3FF2046CB
:1003400010BD04F0D1FBF7E7D8000020616A6520FA
:1003500066696C65206865616465722063686563C1
:100360006B206F6B2C6E6578742073746570202120
:10037000200A0D0070726F636573732066696E6981
:10038000736820205E5F5E002DE9F8430646002476
:100390002546401C02F0E4FF8046124B01226946CC
:1003A000114803F09BFF9DF8007015E0002D0FDC55
:1003B0000C4B012269460C4803F090FF9DF80000A9
:1003C00008F80400B84206D100F008FA054602E039
:1003D00008F804706D1E641CB442E7DB4046BDE8BB
:1003E000F88300002C000020D8000020F8B5104C45
:1003F0000120E060D4E90512202000F0AFF80520CC
:1004000002F0AEFF0546002028710095D4E90512E0
:100410000346202000F05EF8060004D11A21284689
:1004200000F0DBF8E060284602F06CFF3046F8BDD3
:10043000040000202DE9FF4F4FF0000585B01F009C
:10044000914688464FF00D0B4FF0010A2C460CD117
:100450001046FFF78BFE04460BE02146384600F0BD
:10046000BCF8012800D16D1C641C4445F5D3ED1D7A
:10047000EC08601C02F074FF00260546065501A832
:10048000CDF8009080E8E000434652465846059972
:1004900000F094FC07460C2002F062FF044980E85B
:1004A00070004A6A9060486209B03846BDE8F08F33
:1004B000040000207FB50024089E03948DE84C00C2
:1004C0000D4601460D202B46224600F077FC04B075
:1004D00070BD00002DE9F0478146C01DC708984651
:1004E000561A4C1E0025042001F034F9002E06DCBB
:1004F00007E0002002F0E8FC01F004FA6D1CB542B0
:10050000F7DBB8F1000F04D10121781CFFF735FEAD
:100510008046089850B108AB00224946404601F099
:1005200013F80646002C0FDD00250BE0002249469B
:10053000404601F085F8F4E701F0E4F9002002F00C
:10054000C3FC6D1CA542F7DB0348407801F002F9BB
:100550003046BDE8F0870000380000202DE9F04764
:10056000814615460F4600240B2001F0F3F80120C8
:1005700000EBC5000121FFF700FE0646EF1B4FF020
:10058000FF0809E0A74204D1484600F0CFFF3055EC
:1005900001E006F80480641CAC42F3DBE9000022B1
:1005A000304601F04DF804460348807801F0D2F857
:1005B0002046BDE8F0870000380000207FB50C46DB
:1005C0000021CDE90231CDE9004205460E202B463F
:1005D0000A4600F0F3FB04B070BDCA1701EB52727B
:1005E00000EBE20022F00702891AC1F1070200784D
:1005F00001219140084000D0012070472DE9FC5FA7
:1006000082464FF0000808244646401C02F0A8FE2F
:1006100001901F4B012269461E4803F05FFE9DF8C2
:1006200000B030E00025072C08DD194B0122694697
:10063000184803F053FE9DF80060002406FA04F009
:10064000000604F1010418D54FF008090027072C13
:1006500008DD0F4B012269460E4803F03FFE9DF86E
:100660000060002406FA04F000F08000F840054322
:10067000641C7F1C4F45EADB00E05D46019800F8F2
:10068000085008F10108D045CCDB0198BDE8FC9F7B
:100690002C000020D800002010B505A002F022FE9A
:1006A000074900200870BDE8104001F053B8000071
:1006B000416E6C6F6769635F496E6974200A0D0053
:1006C0003800002010B5401C02F04AFE044C0549D9
:1006D000206000206060044804F00EFA206810BD1D
:1006E00030000020FD0F0008F11800082DE9F84344
:1006F00005460027401C02F033FE814600F06EF8EC
:100700008046690091FBF8F5401C00EBD070441066
:100710000121601CFFF731FD06002ED009E02D4BB2
:10072000012269462C4803F0D9FD9DF80000F055E0
:100730007F1CA742F3DB5FEAC8700ED0E8070FD03A
:100740001BE0002100FB04F204E0775C09EB0103ED
:10075000491CD754A142F8DB401CA842F1DB35E02C
:100760006100304604F02AFC010006D0601E4FF004
:10077000FF33661E03EB440213E0AFF30080B04288
:1007800006D10B5C0F7803F0F00303EB171306E0C0
:10079000031BCF5C0B443F015B7807EB13130B5437
:1007A000401C8242EBDC05EBD570451000230BE0CA
:1007B000002002FB03F404E00F5C09EB0006401C80
:1007C000A7558242F8DC5B1CAB42F1DB4846BDE832
:1007D000F88300002C000020D800002038B5002548
:1007E0002C46094B01226946084803F077FD9DF825
:1007F0000000C4EBC40200F07F019140641C0D4472
:100800000006EED4284638BD2C000020D800002079
:10081000F0B50646FF200023720710D111E0CC5C32
:10082000002215465206120EE70701D042F00102DF
:1008300064086D1C082DF5D3FF2A01D01046F0BDC9
:100840005B1CB3EBD60FEAD3F0BD000070B50446D5
:100850000D460DA002F046FD0FE02A5D002108467E
:100860004906090ED30701D041F001015208401C8E
:100870000828F5D305A002F035FD641EEDD5BDE8CE
:10088000704004A002F02EBD202800002530325810
:1008900000000000292000002DE9F84300278046D1
:1008A0003D4600F0A1FD04001FD0E608600700D01F
:1008B000761C234B01226946224803F00FFD9DF868
:1008C00000000F2811D10121701CFFF756FC0546CE
:1008D00009E01B4B012269461A4803F0FFFC9DF812
:1008E0000000E8557F1CB742F3D34046B8F1090F2A
:1008F00011D00A280BD00B281ED0B8F10C0F17D03E
:1009000011A002F0EFFC6FF00900BDE8F8831C486D
:1009100004601C4802E01C4804601C4805602CB1BF
:10092000074B01226946074803F0D8FC0020ECE79A
:10093000174804601748F1E7174804601748EDE7C7
:100940002C000020D80000204572726F723A206996
:100950006E76616C696420486561642F54726169C8
:100960006C657220666F726D61742C2020756E6BE1
:100970006F776E206F70636F64652E0A0A00000047
:1009800048000020580000204400002054000020AF
:1009900040000020500000203C0000204C000020BF
:1009A0002DE9FF5F00258E4F01958E4CD7F80C0284
:1009B0000390A846AB46AA463846A16803F048FA19
:1009C000002604F1280301226946384603F086FC1C
:1009D000A94684F80290FCE0D7F8081282A0039A96
:1009E00002F080FCA0780A2802D2401CA07003E02C
:1009F00084F8029004F070F8A078052801D104F082
:100A000073F836B900F0F0FCC11700EB51704FEAF3
:100A1000E008744B012228336946714803F05EFCFC
:100A20009DF800000C2878D009DC0C2819D2DFE8EA
:100A300000F018B61818227B8B441874747422289E
:100A40006AD008DC0D2843D00E283ED0132879D078
:100A50001C2806D13CE0232875D0242848D025281E
:100A60004ED06CA002F03EFC04F036F86FF00900A6
:100A700004B0BDE8F09F012E01D10026B046594BCD
:100A8000012228336946564803F028FC9DF80000EF
:100A900000F018FE029000F05DFE02980628B8D023
:100AA000B8F1020F08DB0298012805D100F038F9EF
:100AB000002801DD00F020F981E000F095FCE169FB
:100AC00009B181427BDDE06179E000F0DFF926E0E9
:100AD00000F0DCF90546BAF1000F21D025B10198EC
:100AE00001281ED000256AE04FF0000A504610E0B1
:100AF00000F07AFC01904FF0010AD7F808B25EE0EE
:100B0000019801285BDD5946354803F0A1F90198A9
:100B1000401E019053E000E024E0FFF7BDFE0546D3
:100B2000FDB103F0D9FF58E02E4B0122283369466E
:100B30002B4803F0D3FB9DF8000000F0C3FD00F04C
:100B4000BBFD3CE033E01CE0264B01222833694624
:100B5000234803F0C3FB9DF8000000F0B3FD00F054
:100B6000A5FD2CE01F4B0122283369461C4803F0E9
:100B7000B5FB9DF80000022821D101200646206225
:100B80001DE0184B012228336946154803F0A6FBE7
:100B90009DF80000022812D1C4F820900FE0114BFC
:100BA0000122283369460E4803F098FB07E0D7F886
:100BB000080200EB08010A48491E03F049F9094BF5
:100BC000012228336946064803F088FB012E3FF4D2
:100BD00003AF9DF800005E28F9D0284648E70000E2
:100BE000D80000200400002063757272656E7420C6
:100BF00070726F6772657373202063757272656EB1
:100C0000743A2564207E20746F74616C3A256420E8
:100C10000A0D00004572726F723A20696E76616C3F
:100C200069642066696C6520666F726D61742C2042
:100C300020756E6B6F776E206F70636F64652E0A20
:100C40000A0000007CB50646294800240078F228F6
:100C500013D0274B012228336946264803F03EFB78
:100C60009DF80000E8B101282FD0022831D00328D8
:100C700035D0042837D0AFF300800121701CFFF776
:100C80007CFA05460AE01A4B0122283369461948C6
:100C900003F024FB9DF800002855641CB442F2D3F5
:100CA0001BE00121701CFFF768FA05460AE0104BB3
:100CB0000122283301A90F4803F010FB9DF804001E
:100CC0002855641CB442F2D307E03046FFF75CFBC2
:100CD00002E03046FFF70AFD054628467CBD304657
:100CE000FFF78CFCF8E73046FFF7ECFCF4E7000078
:100CF00004000020D800002070B5054600242046DE
:100D000002F0E2F8002002F0F7F806E0012002F01D
:100D1000CFF8002002F0CCF8641CAC42F6DB70BDCA
:100D20002DE9F843224E0024DFF88880F06925463B
:100D300008B9C6F81C804FF400491D4B2F462833D4
:100D4000012269461C4803F0C9FA9DF80050132D92
:100D5000F3D0142D04D0182D0BD05E2D1FD024E01D
:100D600000F042FB484501D9A0F5004004440A3C8C
:100D7000E3E700F039FB0A38F169484507D9A0F5E7
:100D8000004041434FF47A70B1FBF0F002E0414380
:100D9000B1FBF8F0142F00D100240444CDE706483D
:100DA000D0F80812491E03F053F82046BDE8F88336
:100DB0000400002040420F00D80000202DE9F84F29
:100DC000314CDDE90C7ADDF828B0994690460D46A5
:100DD00006460D280AD00E2E1DD1012D1BD00B204A
:100DE00000F0B8FCA068B0B10C2010E02078042816
:100DF00011D0012D05D1062803D0042000F0AAFC53
:100E000009E0042000F0A6FC606820B10B2000F08F
:100E1000D9FB00F077FDB8F1010F0DD09FB14B4623
:100E20003A46009558460B9900F098FA07460D2E61
:100E30001AD00E2E24D10CE00BAB52464946584630
:100E400000F082FBF2E72A464946584600F0F8FBDC
:100E5000ECE7012D14D0206920B100F053FD0A20E9
:100E600000F0B0FBA07809E0012D09D0E06820B1C6
:100E700000F048FD092000F0A5FB607800F06AFC56
:100E80003846BDE8F88F0000380000202DE9FC5FEF
:100E90004FF0000A8346D14657465646554600F065
:100EA000A3FA8046C408400700D0641C504B0122BE
:100EB00001A9504803F012FA9DF80400172822D027
:100EC0000F280CD010280FD0112812D0262815D0AA
:100ED000494802F007FA6FF00900BDE8FC9F204680
:100EE000FFF7B0FE8246E1E72046FFF7ABFE814602
:100EF000DCE72046FFF7A6FE0746D7E72046FFF7C8
:100F0000A1FE0646D2E73A4C283CBBF10E0F23D097
:100F1000BBF11C0F45D0002E62D0334652464146ED
:100F2000206AFFF787FA0446BAF1000001D002F008
:100F3000E9F9B9F1000001D002F0E4F917B138463F
:100F400002F0E0F916B1304602F0DCF915B128469E
:100F500002F0D8F92046C0E7D4E90301084319D1CB
:100F600051464046FFF754FC4FF0010B012802D0D8
:100F7000392803D00EE0C4F810B00BE0D4E9051214
:100F80000120FFF7EBFAD4E90512FF20FFF7E6FA9C
:100F9000C4F80CB03B464A4651464046FFF70EFBAC
:100FA000C1E73B4652464146206AFFF743FA002814
:100FB00093D1606A0068401C02F0D2F9616A05466C
:100FC000002208682A54104603E04B681B5C2B542F
:100FD000401C0B688342F8D8009200232A4602E0A6
:100FE0004B46524600974146206AFFF763FA9AE75C
:100FF0002C000020D8000020D052000808B5044B77
:1010000001226946034803F069F99DF8000008BD14
:101010002C000020D800002070B59AB03EA002F04D
:1010200061F9444B012219A9434803F057F99DF88F
:10103000641042A002F056F99DF864006FF00605B6
:10104000612801D043A05BE03A4B0222A3F12501C5
:10105000394803F043F937492539087818B94878F1
:1010600008B9887800B3334B08226946324803F048
:1010700035F900216846425CC2B1491C0829FADBF7
:10108000012C13D02B4B012219A92B4803F026F970
:101090009DF8644029A0214602F024F9F12C07D0E4
:1010A000F22C05D032A02BE036A029E03CA027E0AE
:1010B000204E204B283E0122347019A91E4803F00F
:1010C0000DF99DF86400622801D03BA018E000F003
:1010D0008BF9184B012219A9174803F0FFF89DF866
:1010E0006400562801D03AA00AE0124B012219A947
:1010F000114803F0F3F89DF86400012805D03BA0E7
:1011000002F0F0F828461AB070BD0B48D0F808027B
:10111000B0600020F7E70000416E6C6F6769635FA5
:1011200052656164416A6548656164657220200AA0
:101130000D0000002C000020D800002072656164C2
:1011400020612063686172203A20253032580A0DF0
:10115000000000006865616465722063726320733B
:1011600074657031206572726F720A0D00000000A4
:10117000686561646572206D6F6465206572726F69
:10118000720A0D0068656164657220637263207382
:1011900074657032206572726F720A0D0000000073
:1011A0006865616465722076657273696F6E20652B
:1011B00072726F720A0D0000686561646572206D5D
:1011C000656D6F7279206572726F720A0D00000092
:1011D0006865616465722056656E6465722073741B
:1011E000657031206572726F720A0D006865616406
:1011F00065722056656E6465722073746570322066
:101200006572726F720A0D002DE9FF4100273C469E
:101210003D463E4601974A4B012203A949480297A1
:1012200003F05CF869E000BF00F0DEF8C11700EBE6
:1012300051704FEAE008424B012203A9414803F0F4
:101240004DF89DF80C00092841D00B2830D00E280D
:101250004DD03C48D0F8080200EB08013948491E3F
:1012600002F0F6FD364B012203A9364803F036F8AA
:10127000E7B301982844324D411C283D6961029A28
:1012800010440219521CAA616878FFF767F9002818
:1012900039D1052002F064F806710090D5E90512F5
:1012A000044600232020FFF715F905002ED03FE06B
:1012B00000F09AF80400D5D0214B012203A921485F
:1012C00003F00CF89DF80C001728F5D1CAE700F0E0
:1012D0008BF80500C6D01A4B012203A9194802F069
:1012E000FDFF9DF80C001728F5D1BBE705E001A92B
:1012F00002A800F095F80746B4E79DF80C005E28B8
:1013000092D04FF0FF3004B0BDE8F081207828B9CA
:10131000607818B9A07808B9E07870B10AA001F037
:10132000E1FF21460420FFF791FA0BA001F0DAFF5C
:10133000204601F0E7FF2846E5E76FF00C05F7E7E8
:101340002C000020D80000200A2043686970204942
:1013500064203A20000000000A0000002DE9FF5F31
:10136000002493468A466FF010085D1E0E9E17E01B
:10137000FFF733F9074621465046FFF72EF981461D
:1013800021465846FFF729F9012803D101F0A8FDAD
:1013900048451BD1F8B201F097FD00F0B3FA641C88
:1013A0000098AC422146E3D3FFF717F905462146E2
:1013B0005046FFF712F9074621465846FFF70DF948
:1013C000012807D101F08CFDB84203D0404604B09B
:1013D000BDE8F09FE8B201F077FD012E01D100F0E9
:1013E00091FA0020F3E7000038B500252C460A4B9F
:1013F00001226946094802F071FF9DF80000C4EB24
:10140000C40200F07F019140641C0D44E4B2000668
:10141000EDD4284638BD00002C000020D800002064
:101420002DE9FC47814600200E46C9F800003446ED
:101430000860FFF7D9FF0746C508400700D06D1CBC
:10144000294B01226946294802F048FF9DF8000017
:101450000F280BD026A001F045FF2448D0F8080241
:10146000C1192248491E02F0F3FC3AE02846FFF772
:10147000E9FB03466D1E21D4DFF86CC0ACF1280CEB
:101480009CF801705A5D0020014640005FEAC27876
:1014900001D040F001005208491C0829F5D3FF286B
:1014A00003D04C46E02804D004E02068401C2060B3
:1014B00000E0E0276D1EE5D58CF801700A4B012293
:1014C00001A90A4802F00AFF9DF80400172803D07A
:1014D00007A001F007FF04E0B44202D00120BDE8FC
:1014E000FC870020FBE700002C000020D800002033
:1014F0004572726F7220496E76616C696420666F06
:10150000726D6174207768656E20657865637574A7
:10151000696E6720726561642073697220696E6606
:101520006F726D6174696F6E210A000001460022BE
:1015300010464006000ECB0701D040F001004908DC
:10154000521C082AF5D370472DE9F047002598462C
:10155000174681462C464E1E19E02FB129463846C3
:10156000FFF73BF8012808D101F0BAFC02462146FA
:10157000641CD8F8000000F083F829464846FFF7BD
:101580002CF8C0B201F0A0FC00F0BCF96D1CB54213
:10159000E3D32FB129463846FFF71FF8012807D1BA
:1015A00001F09EFC02462146D8F8000000F068F8E1
:1015B00029464846FFF711F8C0B201F085FC00202B
:1015C000BDE8F0872DE9F041002501461B482C4677
:1015D0002E462F4609290ED00A2909D00B2904D0FE
:1015E0000C290FD18569846807E04569446804E0E7
:1015F000056A046901E0C569C46825B90C2904D0ED
:101600000A2902D00027641E0DE00127FBE725B15F
:1016100031462846FEF7E1FF0746F8B201F054FCD8
:1016200000F070F9761CA642F1D331462846FEF749
:10163000D4FFBDE8F041C0B201F046BC3800002044
:101640002DE9F0410024164607464D1E08E000BF74
:10165000FEF7C3FFC0B201F037FC00F053F9641C81
:10166000AC4221463846F3D3FEF7B7FFC0B201F0D3
:101670002BFC012E01D100F045F90020BDE8F081DE
:1016800010B5CB1701EB537323F00704091BC1F10D
:10169000070400EBE3030121A1401878C9B20AB1A5
:1016A000084300E08843187010BD000001494870ED
:1016B0007047000038000020014988707047000022
:1016C0003800002010B5002416282AD2DFE800F0E8
:1016D0002D0B1F1115230D1B0F1D29292929292920
:1016E00013211725192701241FE002241DE00324DC
:1016F0001BE0042419E0052417E0062415E0072464
:1017000013E0082411E009240FE00A240DE00B2463
:101710000BE00C2409E00D2407E00E2405E00F2463
:1017200003E0014602A001F0DDFD204610BD0000EF
:101730004572726F723A20496C6C6567616C2074F7
:101740006170207374617465206F70636F646520CD
:1017500025750A002DE9F05F544C054600262078D7
:101760003746A84200D1BDB14FF005084FF004093B
:101770004FF0080A4FF0020B01262078A84270D0E3
:1017800010286FD2DFE800F07A44132022282F348B
:10179000424A5557616F7578012001F0ADFB00F0AA
:1017A000B1F8761C062EF7DB0020BDE8F09F092D6E
:1017B00005D225B1002001F09FFB032057E0012056
:1017C00001F09AFB092052E0042D19D0012001F00C
:1017D00093FB84F8008055E0062D0BD1002001F02A
:1017E0008BFB062043E0012001F086FB07203EE052
:1017F000042D05D0012001F07FFB84F800A041E01A
:10180000002001F079FB84F800903BE0012D35D0F9
:10181000012001F071FB84F800B033E025B1002015
:1018200001F06AFB0A2022E0012001F065FB0020A4
:101830001DE00B2D04D0012001F05EFB0C2016E012
:10184000002001F059FB0B2011E00D2D04D10020E8
:1018500001F052FB0D200AE0012001F04DFB0F20AA
:1018600005E01EE01BE0012001F046FB0E20207089
:1018700008E00B2DF0D1E3E7012DA0D1002001F00D
:101880003BFB267000F03EF87F1C0A2F7FF775AFF8
:1018900007A000BF01F026FD6FF0010085E70DA055
:1018A000F8E7002001F010FB7EE700003800002080
:1018B0004572726F723A204C6F6F7020696E2054BF
:1018C0006170205472616E73697374696F6E2E0A51
:1018D000000000004572726F723A20696E76616C8A
:1018E00069642074617020736174652E0A000000C1
:1018F0000349D1E90023D0544868401C4860704730
:101900003000002010B5012001F0D2FABDE81040EF
:10191000002001F0CDBAFEE770470022AFF300804F
:1019200030B50E4B054601205C7A012C15D8587A4B
:1019300000241C54587A03EB800045605D7A03F163
:1019400008002A54587A421C5A72303008703A20E3
:1019500048702F208870CC70002030BDB403002068
:1019600010B590F821100024022903D004218163CE
:1019700001243DE001680A6822F00E020A60016855
:101980000A6822F001020A601A4A0168914201D1F4
:10199000012121E0174A1432914201D110211BE0AC
:1019A000144A2832914201D1891515E0114A3C327E
:1019B000914201D189140FE00E4A5032914202D176
:1019C0004FF4803108E00B4A6432914202D14FF467
:1019D000801101E04FF08071064A083A5160012100
:1019E00080F82110002180F82010416B01B1884758
:1019F000204610BD0800024070B5044600F0F6F81D
:101A00000546601C02D004480078044400F0EEF85B
:101A1000401BA042FAD370BDA80000202DE9F84F6A
:101A2000DFF890A100220AF1040B144601274FF0C1
:101A30000F090BF1040E00BF0B6807FA04F52B40E9
:101A4000AB4274D1DFF870C14E68A6EB0C08664556
:101A50002BD00DDC032E34D005DC36B3012E19D08B
:101A6000022E2FD11BE0112E16D0122E2AD119E0F2
:101A7000B8F5881F19D006DCB8F5803F15D0B8F549
:101A8000801F1FD111E0B8F5001F0ED0B8F5041F5C
:101A900018D10AE0CA6815E0CA68121D12E0CA68C7
:101AA00008320FE0CA680C320CE08A682AB1012AB9
:101AB0004FF0080203D0456104E0042202E0056112
:101AC00000E00022FF2B01D8064601E000F10406E9
:101AD0004FEA840501D9A5F12005D6F800C009FA1E
:101AE00005F82CEA080C02FA05F54CEA050CC6F8D4
:101AF00000C04D68ED0057D5304DAE6946F0010687
:101B0000AE61AD6924F0030605F0010500952C4D8A
:101B100006EB050CDCF80850A6074FEA167809FA20
:101B200008F6B543274EB04202D1002610E03BE054
:101B3000254EB04201D101260AE0244EB04201D127
:101B4000022605E0224EB04201D1032600E0042621
:101B500006FA08F62E43CCF808604D68DAF8006003
:101B6000ED03554601D51E4300E09E432E604D68AF
:101B7000DBF80060AD035D4601D51E4300E09E43E7
:101B80002E604D68DEF80060ED02754601D51E43FB
:101B900000E09E432E604D68AD020E4D2E6801D5CB
:101BA0001E4300E09E432E60641C102CFFF444AFE3
:101BB000BDE8F88F00040140000011100010024041
:101BC0000000014000080140000C014000100140ED
:101BD000001401400C0401408068084000D001203E
:101BE00070470AB1016170470904FBE7014880684A
:101BF00070470000A8000020024881680278114464
:101C000081607047A8000020074810B5016841F0C6
:101C100010010160032000F073F8002000F006F8C6
:101C200000F024F8002010BD0020024070B50D4DDA
:101C300004464FF47A712878B1FBF0F00A4909683C
:101C4000B1FBF0F000F064FC48B9102C07D2002280
:101C50002146501E00F034F800206C6070BD012059
:101C600070BD0000A8000020B40000200C4808B59A
:101C7000816941F001018161816901F001010091F7
:101C8000C16941F08051C161C06900F0805000908D
:101C90000448416821F0E06141F00071416008BDF5
:101CA000001002400000014000F01F02012191409D
:101CB0004009800000F1E020C0F8001170470000EA
:101CC000F0B40E4B1B680C46C3F30223C3F10705A7
:101CD000042D00D90425191D072901D2002300E095
:101CE000DB1E012606FA05F1491E214099409E405F
:101CF000761E16403143F0BC00F014BE0CED00E03F
:101D0000064900F0070208684FF6FF03184040EA52
:101D10000220034A10430860704700000CED00E009
:101D20000000FA052DE9F047DFF8548105460E461C
:101D3000D8F8000000F00700B0420CD2D8F800102C
:101D400021F007013143C8F80010D8F8000000F076
:101D50000700B0426FD128684A4C810712D540076E
:101D600003D5606840F4E06060602878000703D520
:101D7000606840F4605060606068A96820F0F0001E
:101D8000084360602878C00744D06868012816D0EE
:101D90002168022816D0890700294CDA616821F0F1
:101DA000030101436160FFF721FF6968074641F2C3
:101DB000883001290ED00229814618D026E02168FA
:101DC0008903E9E78901E7E7FFF710FFC11B4945F0
:101DD00001D918E081466068C0F381000128F3D181
:101DE00018E000BFFFF702FFC11B49450BD8606830
:101DF000C0F381000228F5D10CE000BFFFF7F6FE2A
:101E0000C11B494502D90320BDE8F087606810F086
:101E10000C0FF3D1D8F80010404601F00701B14291
:101E20000BD9016821F0070131430160006800F01F
:101E30000700B04201D00120E6E72878400705D529
:101E40006068E96820F4E060084360602878000773
:101E500006D56068296920F4605040EAC1006060DE
:101E600000F036F86168084AC1F30311515CC840BC
:101E7000064908600020FFF7D9FE0020C4E70000F3
:101E800000200240001002400A520008B400002066
:101E90000448054900684968044AC1F30221515CBD
:101EA000C8407047B4000020001002401A520008D9
:101EB0000448054900684968044AC1F3C221515CDD
:101EC000C8407047B4000020001002401A520008B9
:101ED00012A185B00FC98DE80F0014A0144A006844
:101EE00004905168134801F00C03042B10D0082B08
:101EF0000ED1C1F38343C9031DF803000AD551680D
:101F000004AAC1F34041515C0A4A5043B0FBF1F0CE
:101F100005B0704708494843FAE70000020304058A
:101F2000060708090A0B0C0D0E0F10100102000025
:101F30000010024000127A0000093D002DE9F84F20
:101F400004460078B94DC00748D06868C0F38100E6
:101F5000012807D06868C0F38100022809D16868A9
:101F6000C00306D52868800338D5606800286FD084
:101F700034E06068B0F5803F0BD010B1B0F5A02F11
:101F800011D0286820F480302860286820F4802050
:101F900002E0286840F480302860606888B1FFF76C
:101FA00025FE064609E0286840F480202860F0E716
:101FB000FFF71CFE801B642875D828688003F7D5BE
:101FC0000CE0FFF713FE064605E000BFFFF70EFE2C
:101FD000801B6428F0D828688003F7D42078944EBA
:101FE00080074FF001094FF000083BD5686810F0FA
:101FF0000C0F07D06868C0F38100022809D1686817
:10200000C00306D42868800714D5206901281FD191
:1020100010E02069B0B1C6F80090FFF7E7FD074671
:1020200005E000BFFFF7E2FDC01B0228C4D8286806
:102030008007F7D52868616920F0F80040EAC10000
:1020400028600FE0C6F80080FFF7D0FD074606E0E5
:10205000E9E000BFFFF7CAFDC01B022823D82868AB
:102060008007F7D4207800072CD57248A169D9B130
:10207000C0F80090FFF7BAFD074604E0FFF7B6FD91
:10208000C01B02280FD8686A8007F7D56A484FF44A
:10209000FA510068B0FBF1F0009000BF0098411EBB
:1020A0000091FAD20EE080E0C0F80080FFF79EFDBC
:1020B000074604E0FFF79AFDC01B022875D8686A3E
:1020C0008007F7D42078400760D5E8690027C00072
:1020D00008D4E86940F08050E861E869012700F021
:1020E0008050009055480168C90513D401688346A3
:1020F00041F480710160FFF779FD824606E000BF80
:10210000FFF774FDA0EB0A0064284ED8DBF800004E
:10211000C005F5D5E06801280AD008B1052813D01C
:10212000286A20F001002862286A20F0040002E0FA
:10213000286A40F001002862E06841F2883B98B1CB
:10214000FFF754FD82460BE0286A40F00400286245
:10215000EEE700BFFFF74AFDA0EB0A0159455AD848
:10216000286A8007F6D50CE0FFF740FD824605E0BF
:10217000FFF73CFDA0EB0A0159454CD8286A8007BF
:10218000F6D41FB1E86920F08050E861E06988B3B7
:102190006968C1F38101022945D00228C6F8608030
:1021A00004D0FFF723FD044638E034E0FFF71EFDBE
:1021B000074604E0FFF71AFDC01B02282BD8286849
:1021C0008001F7D4206AB0F5803F05D16868A16826
:1021D00020F4003008436860D4E9080108436968C6
:1021E00021F4741108436860C6F86090FFF7FEFCA4
:1021F000044606E015E000BFFFF7F8FC001B0228CC
:1022000009D828688001F7D50BE000BFFFF7EEFC86
:10221000001B022802D90320BDE8F88F286880013E
:10222000F4D40020F8E70120F6E700000010024097
:102230000000424280044242B4000020007000408E
:1022400070B5040005D00025A56294F8510010B1C6
:1022500004E0012070BD204600F034F8022084F82C
:1022600051002068016821F040010160D4E90101BA
:102270000843D4E903121143084361690843218BE1
:1022800001F400710843E1690843216A0843A16A27
:10229000084321680860A069042101EA1040616ACE
:1022A0000843216848602168E06A08612068C169C4
:1022B00021F40061C1616565012084F851000020AE
:1022C00070BD000030B585B00024009401940294E4
:1022D000039400681549884225D11548C16941F425
:1022E0008041C161C16901F480410491816941F07B
:1022F0000801816180690F4D00F0080004904FF4DF
:102300002040009002200190032003906946284657
:10231000FFF784FB4FF48040CDE90004694628466E
:102320000294FFF77BFB05B030BD00000038004091
:1023300000100240000C01402DE9F84F044690F8CF
:10234000500000260A9F9A4693460D464FF001081A
:1023500001280ED0012084F85000FFF747FC814689
:1023600094F85100616801280CD0B1F5827F07D143
:1023700002E00220BDE8F88FA16809B9042801D065
:102380000226BDE055B1BBF1000F07D0BAF1000F36
:1023900004D094F85100012802D004E00126AFE0F7
:1023A000052084F8510000206065C4F838B0A4F816
:1023B0003EA0A4F83CA02563A4F836A0A4F834A05D
:1023C0002064606420680168490603D4016841F014
:1023D00040010160E068B0F5006F606804D0E8B3C8
:1023E000E08E01283BD06AE010B1E08E01282ED1AA
:1023F000216835F8020BC860E08E401EE08626E0BA
:10240000B8F1000F0DD0E08E58B1206881688907BF
:1024100007D535F8021BC160E08E401EE0864FF004
:102420000008E08F58B120688168C90707D0C068EC
:102430002BF8020BE08F401EE0874FF00108781C5C
:1024400005D0FFF7D3FBA0EB0900B84246D2E08EDF
:102450000028D5D1E08F0028D2D136E0FFE72168EF
:1024600015F8010B0873E08E401EE08627E000BFE0
:10247000B8F1000F0DD0E08E58B12068816889074F
:1024800007D515F8011B0173E08E401EE0864FF062
:102490000008E08F58B120688168C90707D0C0687C
:1024A0000BF8010BE08F401EE0874FF00108781C0D
:1024B00005D0FFF79BFBA0EB0900B8420ED2E08EDF
:1024C0000028D5D1E08F0028D2D13B46012202213D
:1024D0002046CDF8009000F04BFC08B103260FE039
:1024E0004A463946204600F033FC18B10126202028
:1024F000606505E0A06818B92068C1688068009030
:10250000012084F85100002084F85000304631E763
:1025100010B5401EB0F1807F01D3012010BD4FF0F7
:10252000E02460610F21601700F0FCF90020A06139
:1025300007202061002010BD7047000070B50268C0
:1025400004461068D168536910F00F0F50D003F0A3
:10255000010501F4907635435DD0C20705D0CA0568
:1025600003D5E26B42F00102E263420705D5DA07C8
:1025700003D0E26B42F00202E263820705D5DA077C
:1025800003D0E26B42F00402E263020705D5DA07EA
:1025900003D0E26B42F00802E263E26B002A33D020
:1025A000800604D5880602D5204600F0C9FC2068C4
:1025B0004069E16BC0F38010090700D428B32046BE
:1025C00000F0B0FC2068416949061AD5416921F044
:1025D00040014161606BA0B11B494163606BFFF733
:1025E000BFF9002810D0606B416BBDE87040084710
:1025F000830610D58B060ED52046BDE8704000F04E
:102600009FBC2046FFF798FF70BD2046FFF794FF60
:102610000020E06370BD030606D50B0604D52046F6
:10262000BDE8704000F090BD4006F3D54806F1D5F6
:10263000D168204621F04001D160202184F8391072
:1026400000F0FDF870BD0000152F000870B5040003
:1026500004D094F83900002510B106E0012070BDC7
:1026600084F83850204600F023F8242084F83900FC
:102670002068C16821F40051C160204600F0ACFC24
:102680002068016921F4904101612068416921F0CD
:102690002A0141612068C16841F40051C160E563CD
:1026A000202084F8390084F83A00002070BD000032
:1026B00030B585B00024009401940294039400681E
:1026C000184988422CD11848816941F480418161C0
:1026D000816901F480410491816941F004018161C3
:1026E0008069124D00F0040004904FF400700090D7
:1026F000022001900320039069462846FFF78EF9D7
:102700002815CDE90004694628460294FFF786F9AA
:10271000002211462520FFF7D3FA2520FFF7C4FA3F
:1027200005B030BD003801400010024000080140F3
:1027300090F83A30202B22D1F9B1F2B190F838302C
:10274000012B1CD081628285C2850021C1632222B7
:1027500080F83A2080F838100168CA6842F4807224
:10276000CA6001684A6942F001024A610068C168B2
:1027700041F02001C1600020704701207047022015
:10278000704770472DE9F843044690F839001F461A
:1027900016460D46202850D1A5B19EB194F83800B8
:1027A00001284AD0012084F838004FF00008C4F80E
:1027B0003C80212084F83900FFF718FAA68481466E
:1027C000E68426E00120BDE8F883E08C401EE0842A
:1027D000A0684B46B0F5805F4FF000024FF08001DB
:1027E0002046009703D000F0E0FCE8B90DE000F0CF
:1027F000DCFCC8B928882168C0F30800486020695B
:1028000008B16D1C05E0AD1C03E0216815F8010B53
:102810004860E08C0028D8D14B4600224021204659
:10282000009700F0C2FC08B10320CCE7202084F818
:10283000390084F838800020C5E70220C3E77047DC
:10284000FEE7000010B504490448FFF766F80249A6
:10285000491E087010BD0000A10000208C0000205F
:102860002DE9F04385B000241D48009401940294A2
:102870000394816941F004018161816901F00401DF
:102880000491816941F0080181618069DFF8548019
:1028900000F008000490002208214046FFF7A1F94B
:1028A000DFF844904FF48057002239464846FFF73E
:1028B00098F9082001250226CDE90005CDE9024658
:1028C00069464046FFF7AAF800970396CDE9015400
:1028D00069464846FFF7A2F805B0BDE8F08300005E
:1028E0000010024000080140000C01400B480A495A
:1028F0004FF4007201604FF48271416000218160E9
:10290000C1600161C0E90512C16101624162816279
:102910000A21C162FFF794BC003800400403002084
:10292000FEE770470907090E002806DA00F00F00DD
:1029300000F1E02080F8141D704700F1E02080F8DD
:102940000014704770470000044B4FF4805118B1D9
:1029500000221846FFF745B90122FAE7000C0140B2
:1029600070B5054601220021092000F0B9F910F0E8
:10297000FF0404D11021284600F078F80446002016
:10298000FFF7E2FF0CB1012070BD002070BD1FB544
:102990006846FFF7E5FF10B1002004B010BD9DF8B8
:1029A00000100120B0EB911F09D19DF808209DF87F
:1029B000091000EB0220084400048009EDE79DF8AF
:1029C00005009DF80A1000F00F0000EBD1109DF8F3
:1029D00009109DF8072001F0030100EB41019DF86B
:1029E0000800800900EB82009DF8062002F0030237
:1029F00000EB8220401CC91F8840CEE72DE9F04142
:102A00000646194815464078062800D049024FF47A
:102A10000077012D4FF001021AD0122000F060F96A
:102A20003946304600F022F86D1E044606F5007661
:102A300015F0FF0501D0002CF2D0012200210C205E
:102A400000F04EF90020FFF77FFF2046BDE8F0813F
:102A5000112000F045F910F0FF04F3D1394630465B
:102A600000F004F80446EDE70000002070B50546CC
:102A70000C460120FFF768FFFF2002F00DFB064621
:102A80006420FEF7B9FFFE2EF6D103E002F004FB4E
:102A900005F8010B641EA4B24FF0FF00F6D202F05D
:102AA000FBFAFF2002F0F8FA002070BD70B50C466A
:102AB0000546FF2002F0F0FAFF28FAD1204602F086
:102AC000EBFAFD2C18D000244FF40076285D02F0BC
:102AD000E3FA641CA4B2B442F8D3FF2002F0DCFA9B
:102AE000FF2002F0D9FAFF2002F0D6FA00F01F0012
:102AF000052801D0022070BD002070BD70B50646CB
:102B00001F4815460C464078062800D04C02012D7F
:102B100014D0012809D001220021372000F0E0F86C
:102B200001222946172000F0DBF801222146192056
:102B300000F0D6F810F0FF040BD01BE00122214674
:102B4000182000F0CDF810F0FF0413D1FE2130461C
:102B50000DE0FC213046FFF7A9FF6D1E06F500765B
:102B600015F0FF0501D00028F3D0FD210020FFF76C
:102B70009DFF04460020FFF7E7FE204670BD0000E1
:102B8000000000202DE9FC410027DFF84C81009770
:102B900038200197C8F81C003846FFF7D5FE4F4D86
:102BA0000024287802F078FA641CA4B20A2CF8D326
:102BB00000219522084600F093F8C0B20128F7D111
:102BC0006F7087224FF4D571082000F089F8C0B2E9
:102BD000012873D100246E46287802F05DFA305542
:102BE000641CE4B2042CF7D39DF802004FF6FE7487
:102BF000012803D19DF80300AA281FD0012200213B
:102C0000372000F06DF801220021292000F068F83B
:102C1000C0B201283DD8022068700122002137206F
:102C200000F05EF801220021292000F059F810F090
:102C3000FF0F3BD0641EA4B2EFD237E04FF08047C5
:102C400001220021372000F04BF8012239462920CB
:102C500000F046F810F0FF0F02D0641EA4B2EFD2CD
:102C6000B4B1012200213A2000F03AF880B90024E2
:102C7000FF2002F011FA3055641CE4B2042CF7D3A3
:102C80009DF80000400601D5062000E00420687091
:102C900014E00120687001220021104600F020F8A5
:102CA00010F0FF0F02D0641EA4B2F4D22CB10122A6
:102CB0005102102000F014F800B16F700020FFF7EF
:102CC00043FE0020C8F81C00687810B10020BDE861
:102CD000FC810120FBE7000004030020000000202D
:102CE0002DE9F041054617460C460020FFF72CFE63
:102CF0001420FEF781FE0120FFF726FE134E3078E8
:102D000002F0CAF9FF28FAD145F0400002F0C4F9F8
:102D1000200E02F0C1F9C4F3074002F0BDF9C4F37C
:102D2000072002F0B9F9E0B202F0B6F9384602F035
:102D3000B3F90C2D02D1307802F0AEF9FF2002F089
:102D4000ABF90106FAD4BDE8F081000000000020D4
:102D500038B50B46009204460022802100F008F8A6
:102D6000002804D0606D40F020006065032038BD6D
:102D70002DE9F0411D4617460E460446DDF8188041
:102D800035E0681C33D02DB1FEF730FFA0EB080012
:102D9000A8422CD32068416821F0E00141606068BE
:102DA000B0F5827F0BD1A068B0F5004F02D0B0F52E
:102DB000806F04D12068016821F040010160A06AA1
:102DC000B0F5005F0AD1206801684DF6FF7211402E
:102DD00001602068016841F400510160012084F81D
:102DE0005100002084F850000320BDE8F0812068E5
:102DF000806836EA000004D00020B842C1D100202B
:102E0000F3E70120F9E700000149C86170470000BD
:102E1000040300207047FEF7EFBE30B58FB02821C5
:102E20006846FDF798F914210AA8FDF794F90224E1
:102E30000120049000941020059000254FF46010AC
:102E4000CDE9085007946846FFF778F80F20CDE9E0
:102E50000A048020CDE90C0502210AA80E95FEF790
:102E600061FF0FB030BD00000D48016841F0010165
:102E7000016041680B4A1140416001680A4A1140F3
:102E80000160016821F480210160416821F4FE01A4
:102E900041604FF41F0181600449C003086070471E
:102EA000001002400000FFF8FFFFF6FE08ED00E012
:102EB000012804D0002280210248FEF792BE0122A0
:102EC000F9E70000000C0140012804D00022402155
:102ED0000248FEF786BE0122F9E70000000C01401F
:102EE00010B520210348FEF777FE012800D000200E
:102EF00010BD0000000C0140012806D05FF0000268
:102F00004FF480710248FEF76CBE0122F8E7000022
:102F1000000C014010B5406A0021C185C184FFF753
:102F20000BFB10BD0168CA6822F49072CA60016888
:102F30004A6922F001024A61202180F83A10704764
:102F400010B590F83A10222901D0022010BD8168F6
:102F5000B1F5805F11D00169002901681FD049686F
:102F600001F07F03816A4A1C82620B70C18D491E89
:102F70000904090CC18518D02BE00269816A002A76
:102F80000268526805D0D2B20A80816A491C816207
:102F9000ECE7C2F308020A80816A891CF7E74A68F5
:102FA000816A4B1C83620A70E0E70168CA6822F0FC
:102FB0002002CA600168CA6822F48072CA6001688F
:102FC0004A6922F001024A61202180F83A10FFF795
:102FD000D8FB002010BD00002DE9F0410446006838
:102FE0000169E26821F44051114301612169A0683F
:102FF0000843616908432168CA6841F20C639A4337
:103000000243CA6020684169A26921F440711143FA
:1030100041614C4920686425322688423CD1FEF744
:1030200047FF00EBC00101EB001061688900B0FBB5
:10303000F1F7FEF73DFF00EBC00101EB0010616806
:10304000B0468900B0FBF1F0B0FBF5F06FF018016D
:10305000484307EB800106EB0110B0FBF5F000F0F0
:10306000F006FEF725FF00EBC00101EB00106168E0
:103070008900B0FBF1F0B0FBF5F006EB0016FEF7AF
:1030800017FF00EBC00101EB001061688900B0FB85
:10309000F1F7FEF70DFF3BE0FEF7FAFE00EBC00193
:1030A00001EB001061688900B0FBF1F7FEF7F0FE5C
:1030B00000EBC00101EB00106168B0468900B0FB75
:1030C000F1F0B0FBF5F06FF01801484307EB800119
:1030D00006EB0110B0FBF5F000F0F006FEF7D8FEAD
:1030E00000EBC00101EB001061688900B0FBF1F05A
:1030F000B0FBF5F006EB0016FEF7CAFE00EBC001D0
:1031000001EB001061688900B0FBF1F7FEF7C0FE2B
:1031100000EBC00101EB001061688900B0FBF1F029
:10312000B0FBF5F06FF01801484307EB800108EBA6
:103130000110B0FBF5F0216800F00F00304488600A
:10314000BDE8F0810038014090F83910212901D004
:10315000022070478168B1F5805F016A0BD04A1C7C
:103160000262026809785160C18C491E0904090C89
:10317000C1840ED017E009880268C1F308015160CC
:1031800001690029016A02D0491C0162ECE7891C2F
:10319000FBE70168CA6822F08002CA600068C16863
:1031A00041F04001C160002070472DE9F041984690
:1031B00017460E460446069D1DE0681C1BD02DB127
:1031C000FEF714FDA0EB0800A84214D92068C168DE
:1031D00021F4D071C1602068416921F00101416191
:1031E000202084F8390084F83A00002084F8380060
:1031F0000320BDE8F0812068006836EA000004D0B2
:103200000020B842D9D00020F3E70120F9E7000000
:103210000148FFF793B900005C03002010B5FFF7E9
:10322000B1FC002809D03820FFF7EEFDFF2001F0A7
:1032300033FF0020FFF7E8FD012010BD10B5144654
:1032400041B101291DD0022914D0032915D004242D
:10325000204610BD0120FFF777FB1420FEF7CCFBC2
:10326000FF2001F019FFFF28F7D100242046FFF7C7
:103270006BFBEDE74FF4007000E0082010800024A5
:10328000E6E7FFF784FB2060F9E770B514460D46CA
:103290000BB148B901E0042070BDDAB221462846DE
:1032A000FFF7ACFB0028F7D0012070BD002804D048
:1032B000012803D0022801D0012070470020704768
:1032C00070B514460D460BB148B901E0042070BD3D
:1032D000DAB221462846FFF711FC0028F7D001207A
:1032E00070BDFEE70FB4054B10B503A9044A029860
:1032F00000F06EF810BC5DF814FB0000B148000847
:10330000C000002030B528B1144C031F00202168F4
:103310000A4605E0084630BD9A4203D81046526876
:10332000002AF9D1002800D041680BD00468A3EB33
:103330000005A54204D11B681C440346046002E05A
:10334000436000E023603AB11C68D51AA54203D15E
:1033500015682C441C6052685A6030BDC4000020BF
:103360002DE9F04782460F4C10480D4E0E4F001BC2
:103370004FF0000820F007054FF001090022114628
:10338000504601F077FB002802D1306810B10020D0
:10339000BDE8F0873C60C4E90058C6F80090EDE74E
:1033A000C8000020C4030020C4000020C015002075
:1033B00002E008C8121F08C1002AFAD170477047FE
:1033C000002001E001C1121F002AFBD1704700005C
:1033D0002DE9FF4F8DB00F460546002606E0252853
:1033E0000BD0DDE90F1290476D1C761C2878002861
:1033F000F5D111B03046BDE8F08F0024A246A146B9
:103400000122E94900E0044315F8013F203B02FA9C
:1034100003F00842F7D128782A2810D06FF02F0245
:103420002878A0F13001092914D80AEB8A0102EBAF
:10343000410144F0020400EB010A6D1CF0E701CFEA
:103440005FEA000A03D544F40054CAF1000A44F0CC
:1034500002046D1C28782E2817D115F8010F44F0AE
:1034600004042A280ED06FF02F022878A0F1300132
:1034700009290AD809EB890102EB410100EB010996
:103480006D1CF2E757F8049B6D1C28786C280FD050
:1034900006DC4C2817D068280DD06A2814D104E027
:1034A000742810D07A280FD10DE044F400140AE0FB
:1034B00044F4801401E044F440146978814202D15C
:1034C00004F580146D1C6D1C28786E281ED00CDC51
:1034D000632830D004DC00288BD0582811D19FE01D
:1034E000642867D069280CD164E073282DD004DCEF
:1034F0006F2872D0702804D194E075286ED0782897
:103500006DD0DDE90F129047761C4BE1C4F30250F9
:10351000022806D0032809D0042801CF09D006606C
:1035200040E101CFF117C0E900613BE101CF068026
:1035300038E1067036E117F8040B8DF80000002022
:103540008DF80100EB46012003E057F804BB4FF073
:10355000FF3061074FF0000102D40DE008F10101D6
:10356000884649450FDA8045F8DB1BF8081000292A
:10357000F4D108E008F1010188468142FADB1BF82A
:1035800008100029F6D1DDE90F23AAEB08008146D7
:10359000214600F031F9304400EB080604E0DDE993
:1035A0000F121BF8010B9047B8F10108F7D2214622
:1035B0004846F2E00A21C4F302524FF0000B089192
:1035C000022A04D001CFC117032A09D00AE0FF1D47
:1035D00027F00707F7E8020108E02CE01EE01FE0F3
:1035E00000B2C117042A01D140B2C117021E71F105
:1035F000000206DA0023D0EB030063EB01012D2269
:1036000002E0220504D52B228DF82420012203E0BC
:10361000E20701D02022F7E7904653E00A210BE0B1
:10362000102109E010214FF0000B44F004044FF08A
:103630000809089103E008214FF0000B0891C4F33A
:103640000252022A04D001CF0021032A06D006E04C
:10365000FF1D27F00707F7E8020103E080B2042A04
:1036600000D1C0B24FF0000822072BD52A78702A6B
:1036700007D0DDF820C08CF0100C5CEA0B0C05D0F4
:103680000EE040228DF82420012208E050EA0103D8
:1036900006D030238DF824308DF825200222904664
:1036A000089B83F0080353EA0B030BD150EA010295
:1036B00001D1620706D530228DF824204FF0010891
:1036C000A9F101092A78582A04D038A20B9208AA35
:1036D0000A920BE03AA2F9E75B46089AFCF75BFD19
:1036E0000B9B9B5C0A9A521E0A92137050EA0102CD
:1036F000F2D10A98ADEB000000F1200B600702D573
:1037000024F4803401E04FF00109D94502DDA9EB32
:103710000B0000E0002000EB0B0141440890AAEBF5
:10372000010AE00306D4DDE90F232146504600F0EC
:1037300063F806444FF0000908E009A911F80900F0
:10374000DDE90F12904709F10109761CC145F4DB50
:10375000E0030CD5DDE90F232146504600F04CF87C
:10376000064404E0DDE90F1230209047761C0899EA
:10377000481E08900029F5DC08E00A980A990078AC
:10378000491C0A91DDE90F129047761CBBF100013C
:10379000ABF1010BF1DC21465046DDE90F2300F0CF
:1037A00019F806446D1C21E6092801003031323336
:1037B000343536373839616263646566000000006D
:1037C0003031323334353637383941424344454657
:1037D000000000002DE9F041044600251E46174672
:1037E000880404D405E039462020B0476D1C641ECF
:1037F000F9D52846BDE8F0812DE9F04104460025C1
:103800001E469046C80301D5302700E020278804D3
:1038100004D505E041463846B0476D1C641EF9D515
:103820002846BDE8F081000010B50446002084F869
:103830000402401EC4F82C02204601F029FB08B106
:10384000032010BDB4F8FE01A0F52A41553901D07E
:10385000022010BD94F8360094F8391094F83720FF
:1038600040EA016194F83800000440EA0220014374
:103870000A48B0EB012F0DD014F8521FE27863789C
:1038800041EA0261A278120442EA03221143B0EB3A
:10389000012F01D1002010BD012010BD0046415470
:1038A000F0B50022184B144602EB420653F826509E
:1038B00085B1D0F80072BD420DD103EB8605D0F87A
:1038C00008626F68B74206D12D89B0F80662B5422A
:1038D00004D000E00124521C022AE5D3022A01D0C0
:1038E00079B904E05CB9022909D01220F0BD02EBDD
:1038F000420003EB80004089B0F5807F01D00020BA
:10390000F0BD1020F0BD00009C03002030B5002168
:10391000064A0C4601EB410352F82350854201D17F
:1039200042F82340491C0229F4D330BD9C030020F7
:10393000D0F82422D0F80002490A90F80202B1FB24
:10394000F0F0121D02CA19B1884203D3401AF8E7F9
:1039500000207047116808447047D0F81422891E6F
:10396000921E8A4201D800207047D0F8282290F891
:10397000020201FB002070472DE9F0410F000546CF
:1039800006D000F0A1FF02280BD20120BDE8F08193
:10399000D5F80C621EB1D5F81402B04208D8012641
:1039A00006E0411CF2D0D5F814128142EED83E4612
:1039B0003446D5F81402641CA04202D80224022E18
:1039C0000AD32146284600F07FFF38B1411CDDD0E4
:1039D0000128DBD0B442ECD10020D7E76FF0704271
:1039E0002146284601F06FFA30B957B122463946D0
:1039F000284601F068FA20B1012812D0012420469F
:103A0000C4E7C5F80C42D5F81002411CF7D0401E9F
:103A1000C5F8100295F8050240F0010085F805028E
:103A2000EDE74FF0FF34EAE72DE9F04789460C68EF
:103A300000E0641C21782F29FBD05C29F9D0D0F854
:103A400018520B222021284601F01BFA00200146C3
:103A50000B460826E25C5B1C202A35D92F2A33D07E
:103A60005C2A31D02E2A01D0B04208D3082E38D19A
:103A70002E2A36D108200B268906090EEAE7802A6D
:103A800005D3244F41F003013A4412F8802C22A7B9
:103A900000E07F1C97F800C0BCF1000F02D09445F5
:103AA000F7D11EE0A2F14107192F02D841F002011F
:103AB00007E0A2F16107192F03D8203A41F0010174
:103AC000D2B22A54401CC5E71C44C9F80040202A41
:103AD00001D8042200E0002218B12878E52803D09C
:103AE00004E00620BDE8F08705202870082E01D1EB
:103AF0008806010E01F00300012801D142F01002F6
:103B0000C1F38100012801D142F00802EA720020CD
:103B1000E8E7000022520008222A2B2C3A3B3C3DC9
:103B20003E3F5B5D7C7F0000401E022815D20C4B9F
:103B300000EB400203EB82014889B0F5807F05D09D
:103B400008B1401E80B2488110B104E00020FAE7BD
:103B5000002043F822000020704702207047000038
:103B60009C0300202DE9F041B0F806620446761C63
:103B700030040F46000C37D0D4F8100298B3310748
:103B800073D1401CC4F81002D4F80C12D4F800020F
:103B900031B190F80222521E12EA161F05D064E0DD
:103BA000B0F80802B0421FD95FE000F08DFE054674
:103BB00001281ED9681C3AD0D4F80002D0F814129B
:103BC000A94249D87FB1D4F80C12FFF7D5FE050001
:103BD0000DD0012D0DD0681C29D0D4F8000201F0C1
:103BE000CEFA20BB07E0FFE70420BDE8F081072004
:103BF000FBE70220F9E74FF400720021D4F800023D
:103C000001F03FF92946D4F80002FFF7A6FED4F8E8
:103C1000001200274FF00108C1F82C0211E000BF8C
:103C200080F80482D4F8000201F0A9FA08B101205A
:103C3000DBE7D4F80002D0F82C12491C7F1CC0F836
:103C40002C12D4F8000290F80212B942E8D8D0F849
:103C50002C12C91BC0F82C12C4F80C522946D4F8F7
:103C60000002FFF77AFEC4F81002A4F80662D4F846
:103C7000000206F00F0100EB4110C4F8140200200E
:103C8000B3E770B50446002100F036F810E0D4F830
:103C90001012D4F8000201F0FBF858B9D4F814025D
:103CA0000078E52809D040B101212046FFF75AFFEE
:103CB0000028ECD0042809D009E0D4F81012D4F878
:103CC000000201F0E5F8050003D013E007200546E7
:103CD00010E0D4F814022022002104F5007401F051
:103CE000D0F8D4E905010B2201F0C2F821680120C7
:103CF00081F80402284670BD70B5A0F80612D0F80D
:103D000008320D460446012B40D0D4F80002D0F80A
:103D1000141299423AD933B990F80012032906D106
:103D2000D0F824321BB190F80202060114E0B0F87A
:103D30000812A9422AD9D0F8240214E000F0C4FDE8
:103D40000346401C20D0022B20D3D4F80002D0F828
:103D5000140298421AD9AD1BD4F80002B542194694
:103D6000ECD2FFF7FAFDC4F80C3278B100EB151075
:103D7000C4F81002D4F8000205F00F0100EB411066
:103D8000C4F81402002070BD012070BD022070BD77
:103D9000084910B50B5C002253B901220A540A18D5
:103DA00001EB8000127A406801681046884702469D
:103DB000104610BDB403002030B4054C231804EBAA
:103DC00080001B7A406804691846A44630BC6047EE
:103DD000B403002030B4054D2C1805EB8000247A84
:103DE000406885682046AC4630BC6047B40300207C
:103DF000044A111802EB8000097A406842680846BC
:103E000010470000B403002030B4054D2C1805EB1A
:103E10008000247A4068C5682046AC4630BC6047C4
:103E2000B403002010B5044600F01EFB00280DD19D
:103E3000204601F0D4F9002808D1D4F82802FFF771
:103E400073FE002802D10021C4F8001210BD00004A
:103E50002DE9FC5F0D46044601F0C1F95FEA000957
:103E600073D194F8070200286FD1D4F824020127F7
:103E70004FF0020A002869D0691C33D0D4F80C0234
:103E8000A84200D20546C4F80852002D5CD0204656
:103E9000691EFFF74DFD0146C4F81402D4F8000274
:103EA000FFF75BFD00287CD0D4F800126D1E91F85E
:103EB0000222521E02EA55221518B4F80802C00563
:103EC000E4D0D4F81822AA42E0D094F806024006C2
:103ED00046D591F8010201232146FFF795FF0028FE
:103EE00074D137E002C80091D4F81012834602253D
:103EF00009B30026AD1C01918846761CD4F8000257
:103F000000F0E2FC014601284BD9481C5ED008F1C4
:103F100001008142F0D00098854206D8CBF80060BD
:103F20000BF10400019A04C08346D4F80002D0F8D3
:103F300014028842DDD8D4F8240205600098854236
:103F400005D80021CBF80010C2E09DE016E04FF04C
:103F50001109BDE094F8060220F0400084F8060242
:103F6000D4F8000201232A4690F801022146FFF707
:103F700031FF00282AD1C4F81852A9E0D4F80C0265
:103F8000A84204D294F80612890700D405464FF0DF
:103F90000008D4F80802C4F808824DB3D4F800220F
:103FA00000E06EE092F802124E0280B1691E401EDF
:103FB000B1FBF6F1B0FBF6F3994208D3711E8843CA
:103FC000C4F808022D1AD4F8141210E06EE0D4F8E8
:103FD000101251B900211046FFF7CEFC014601280E
:103FE0004FD0481C62D0C4F81012C4F8141211BB90
:103FF00031E000BF94F806028007D4F8000205D52E
:10400000FFF7BAFC010004D1354616E000F05CFC75
:104010000146481C4AD0012933D9D4F80002D0F80F
:10402000140288422DD9C4F81412D4F80802AD1B2A
:104030003044C4F80802B542DCD8D4F80802284459
:10404000C4F80802E80506D0D4F80002FFF785FCA2
:10405000B8B100EB5528B4F80802C0052CD0D4F84C
:104060001822424528D094F80602400614D5D4F808
:1040700000020123214690F80102FFF7C5FEA8B90E
:1040800004E084F807A20220BDE8FC9F94F8060231
:1040900020F0400084F80602D4F8000201234246D2
:1040A00090F801022146FFF795FE18B184F80772D7
:1040B0000120E9E7C4F81882D4E98201884207D9CF
:1040C000C4F80C0294F8060240F0200084F80602BE
:1040D0004846D9E72DE9F74181B090460298009013
:1040E000684600F059FC040003D50B2004B0BDE87D
:1040F000F0810E4E002756F8245025B12846FFF7D0
:1041000005FC85F800720198002801D080F8007243
:1041100046F8240002D0B8F1010F01D00020E5E7F5
:10412000002202A901A800F0FBF9DFE7BC00002093
:104130002DE9F747ADF50B7D06000ED04FF00008D6
:1041400002F01F0727F001028CA980A8C6F80082A0
:1041500000F0E6F9040005D0B9E009200DF50E7D68
:10416000BDE8F08788A8869068468C9900F040FBEF
:10417000859D04000BD11DB1780803D0012102E018
:10418000062404E000216846FFF78AFB044617F086
:104190001C0F5FD04FF0010AD4B1042C13D10020C2
:1041A0004D4902E0401C022805D200EB400251F8C4
:1041B0002220002AF6D1022804D06846FFF761FDCC
:1041C000044600E01224859D47F0080754B17EE0C4
:1041D000E87A10F0110F01D0072478E0780701D5B4
:1041E000082474E0380743D500F0D4FBA873010A13
:1041F000E973010C2974000E687485F80B8085F84A
:104200001C8085F81D8085F81E8085F81F80294652
:10421000809800F057FC81460021284600F04CFFB2
:104220008099B9F1000F81F804A21FD08098494607
:10423000D0F82CA200F0F8FE040048D18099A9F132
:104240000100C1F80C025146809800F021FE0400E4
:104250000AD03CE0DCBBE87AC10601D5042436E094
:10426000B90701D5C007B7D1380701D547F02007F6
:104270008098D0F82C02C6E98705780801D0012182
:1042800000E00021684600F0A5FBC6F8280200B354
:1042900086F8067286F807824746294606F50076B4
:1042A000809800F00FFC3061287FE97F6A7F40EA48
:1042B0000160A97F090441EA02210843C6E90270AE
:1042C000B761776280983060B0F80602B08020460F
:1042D00044E70224FBE700009C0300202DE9F84F8F
:1042E00088460021994615460446196000F077FF7C
:1042F000002812D194F8070200280ED194F8060283
:10430000C00709D0D4E98201081A01274FF0020A38
:10431000854200D90546A2E00720BDE8F88F00BF1E
:10432000D4F80812C8057CD1D4F8000290F8022213
:10433000521E02EA512212F0FF0614D131B1D4F814
:10434000242232B12046FFF7F3FA06E0D4F8100237
:1043500003E0D4F8141200F0B7FA022823D3411C6A
:104360005BD0C4F81402D4F81412D4F80002FFF79A
:10437000F4FAC0B130440090680A5FEA000B2AD01A
:10438000D4F8001206EB0B0291F80202824201D926
:10439000A0EB060B91F801025B464146009AFFF73D
:1043A00019FDD0BB03E084F807A20220B5E794F81A
:1043B000060240060CD5D4F818120098081A584581
:1043C00006D208EB40204FF40072214600F050FD69
:1043D0004FEA4B2637E0D4F818220098824221D0C9
:1043E00094F8060240060ED5D4F8000201232146B7
:1043F00090F80102FFF708FD78B994F8060220F062
:10440000400084F80602D4F800020123214690F807
:104410000102009AFFF7DEFC20B184F80772012048
:104420007BE702E00098C4F81802B4F80802C0F371
:104430000800C0F50076AE4200D92E46011932467A
:10444000404600F015FDD4F80802B0443044C4F8EA
:104450000802D9F800008119AD1BC9F80010002D21
:104460007FF45EAF002058E770B5044600F0B7FE59
:10447000002811D194F806128A060DD5480612D5E7
:10448000D4F800020123214690F80102D4F8182242
:10449000FFF7BAFC08B1012070BD94F8060220F0C5
:1044A000400084F80602D4F81C12D4F8000200F090
:1044B000EFFC0028F0D1D4F82052E87A40F0200038
:1044C000E87294F80C022877B4F80C02000A6877B6
:1044D000D4F80C02000CA877D4F80C02000EE87790
:1044E000D4F81012284604F5007400F0E5FD00F041
:1044F00051FAA875010AE975010C2976000E687653
:104500000020A874E874A07920F02000A071216830
:10451000012081F804022068BDE8704000F0D4BD9D
:104520002DE9FF474FF000090746C0F800901646F6
:10453000084600F031FA050003D50B2004B0BDE8B1
:10454000F087A84850F82540A4B13C6094F80002D8
:1045500028B194F80102FFF74BFCC1070CD084F896
:104560000092E8B284F80102FFF712FCC10708D0FC
:104570000320E3E70C20E1E70EB1400704D400205C
:10458000DCE71EB1400701D50A20D7E70025294600
:104590002046FFF749F9012827D100214FEA0D07EE
:1045A00004EB011090F8C22100F5DF704AB1027AE5
:1045B000C37A42EA0362837A407A1B0443EA00200A
:1045C000024347F82120491C0429E9D35FF0000683
:1045D00057F826502DB129462046FFF725F908B98E
:1045E00009E00220761C042EF2D3032801D0E8BB98
:1045F00001E00120A2E7B4F80B00B0F5007F70D114
:10460000E28A6AB994F8240094F8271040EA01621B
:1046100094F8260094F82510000440EA0120024393
:10462000C4F81822217C84F80312012901D0022940
:1046300057D1607B514384F80202B8B1431E18423F
:104640004FD1B4F81130A4F808321E0749D1B4F89C
:1046500013607EB994F8206094F8237094F821C018
:1046600046EA076694F822703F0400E039E047EA22
:104670000C273E43B4F80EC0BCF1000F31D00CEB58
:10468000010707EB1317BE422BD3F61BB6FBF0F066
:1046900038B3012640F6F678404500D302264FF69F
:1046A000F678404500D30326801C2F44C4F82872B6
:1046B000AC44C4F81402C4E9875C032E13D083B160
:1046C0006144C4F82412022E21D000F0010100EB55
:1046D000400001EB500000BF00F2FF10B2EB502F82
:1046E00017D20D202AE7002BFBD194F82C1094F858
:1046F0002F3094F82D7041EA036194F82E301B049A
:1047000043EA072319438000C4F82412E4E7400079
:10471000E2E74FF0FF30C4F81002C4F80C0280202A
:1047200084F80502032E4FD1208E01284CD120465B
:10473000691C00F0ADFBE0BB84F80592B4F8FE0103
:10474000A0F52A4155393FD12078E178627840EAD6
:104750000160A178090441EA022108432249884204
:1047600032D194F8E40194F8E71194F8E52140EA95
:10477000016094F8E611090441EA022108431B494B
:10478000884221D194F8E80194F8EB1194F8E921DA
:1047900040EA016094F8EA11090441EA0221084361
:1047A000C4F8100294F8EC0194F8EF1140EA0160AB
:1047B00000E009E094F8EE1194F8ED21090441EAD3
:1047C00002210843C4F80C02064984F80062091F5C
:1047D0000888401C0880A4F806022046FFF796F8D7
:1047E000CDE60000BC00002052526141727241616E
:1047F00073B50446019908782F2801D05C2801D1AF
:10480000491C01910025C4F808520198007820281D
:1048100006D200212046FFF76FFAC4F814527CBD7F
:1048200001A92046FFF700F90028F8D10021204611
:10483000FFF762FA20BB00BFD4F81012D4F80002D0
:1048400000F026FBE0B9D4F814120A7832B1CA7A23
:1048500012070FD40A23D4F8182203E004200FE033
:104860005B1E06D311F8015B12F8016BAD1BF7D08C
:1048700000E02DB100212046FFF774F90028DBD0BD
:10488000D4F81812C97A28B10428C8D14907C6D467
:1048900005207CBD4907FCD4D4F81412C87AC006A0
:1048A000F6D5D4F8000200F00DF9C4F80802B7E715
:1048B00013B54FF6FF73012269460248FDF762FF08
:1048C00000981CBD5C0300202DE9F0410D46044614
:1048D00002290DD3D4F81402A84209D994F8000291
:1048E0004FF0FF36012807D002282AD0032836D0FF
:1048F00001263046BDE8F081D4F8200205EB5507CB
:1049000000EB5721204600F0C3FA0028F1D1C7F38D
:1049100008007F1C14F80080D4F8200200EB572117
:10492000204600F0B5FA0028E3D1C7F30800215C67
:1049300048EA0120E90701D00609DAE7C0F30B06CF
:10494000D7E7D4F8200200EB1521204600F0A0FAAA
:104950000028CED1E8B204EB40000688C9E7D4F8BD
:10496000200200EBD511204600F092FA0028C0D1B9
:1049700040F2FF1000EA850020440178C27841EA45
:10498000026182784078120442EA0020014321F05B
:104990007046AEE70020704710B504464FF0FF3078
:1049A0002268002A13D0114600E0491C0B78212B05
:1049B0000ED33A2BF9D112F8013B303B0A2B06D229
:1049C0008A4204D1002B02D1491C1846216010BD37
:1049D000002010BDF0B50346254AD3F80042002060
:1049E00000EB400552F82560A6420BD102EB85058D
:1049F000D3F808626F68B74204D12D89B3F8066214
:104A0000B54202D0401C0228EAD302281AD1002065
:104A100002E0401C022805D200EB400552F8255068
:104A2000002DF6D1022815D000EB400542F82540B4
:104A300002EB8504D3F808626660B3F8063223817E
:104A400000236381002900EB400102EB81014989C9
:104A500002D019B10020F0BD491C01E04FF4807173
:104A600000EB400302EB8302401C5181F0BD0000CB
:104A70009C0300202DE9F0410B3020F00706104D7B
:104A800019E02068B04215D3B0420AD9871B201D17
:104A9000D4F80480FBF7B0FBA019C0E900782860C7
:104AA00004E060682860201DFBF7A6FB201D26603F
:104AB000BDE8F081251D2C68002CE2D10020F7E72D
:104AC000C40000200246488B92F80022032A02D13B
:104AD000898A40EA01407047002208210148FDF719
:104AE00080B8000000080140012208210148FDF7BC
:104AF00078B80000000801402DE9F34F40F201149E
:104B0000601E85B0002789463D460190C847411C7C
:104B100020D010F0FC0F1DD100F003014FF4007005
:104B200088400390A0F580700646FEF719FC824687
:104B300003984000A0F50070FEF712FC009030468C
:104B4000FEF70EFC0290BAF1000F03D0009808B1F6
:104B5000029830B9012007B0BDE8F08FB4F5007FAE
:104B600001DA082608E0092606E000BFB4F5006F68
:104B700001DA0A2600E00B26711C4FF0010808FA42
:104B800001F0001BA0F1010BC847411C28D0B84020
:104B900005430837B742F7DB08FA06F0401E00EA83
:104BA0000508F540BF1BD8450DDB27B9C847411C98
:104BB00016D00546082705F00101CBEB48006D082B
:104BC00000EB01087F1EA04514D10298FEF79AFB66
:104BD0000098FEF797FB5046FEF794FB0020BAE7DB
:104BE0000298FEF78FFB0098FEF78CFB5046FEF70D
:104BF00089FBAFE74FF48070804503D1441CCDF8AA
:104C00000480ABE70199814204D105994046884769
:104C1000641C44E0601E41460490804501D1019827
:104C200000E008465646FF2801DC014605E00299EF
:104C30000144A1F5805191F8001F06F8011B08DD21
:104C4000009901EB4000A0F58050B0F9000E411C26
:104C5000E9D116F801BD0599307888473046761EAF
:104C60005045F8D10498804502D1059958468847A7
:104C7000DDE9001001EB4401A1F58051A1F8FE0D22
:104C800002992144A1F58051641C81F8FFBE03986C
:104C9000844204D140F20114CDF8048061E7CDF8DC
:104CA0000480B4F5806FBFF661AF57E7ADF5107DB6
:104CB000FCF7AAFFFEF7B1F8FDF7D2FDFDF7C2FD44
:104CC00041484049002401604FF4E131C0E901143A
:104CD0000C21C460C0E904418461C461FDF7B6FCE5
:104CE000FDF704FE012239493748FDF721FD38A0C0
:104CF000FEF7F8FA002208213848FCF772FFFDF7AA
:104D000041FF01281BD036A0FEF7ECFA012239A1A1
:104D10006846FFF7DFF9A0B137A0FEF7E3FA2B4DA5
:104D20004FF47A761535A5F1160428780A302870E4
:104D300068780A3068702078401C20703DE032A00E
:104D4000E2E736A0FEF7CEFA384E4FF4E0758C94C9
:104D50008D948E940022294630468F94FCF741FFB3
:104D600001208C95CDE98D0402208F908CA93046CE
:104D7000FCF754FE2020CDE98C048CA930468E949B
:104D8000FCF74CFE2AA0FBF7B5FA010004D02CA0DA
:104D9000FEF7A8FA31A005E00C49C91D081FFBF772
:104DA0005FFA30A0FEF79EFA012212A10020FFF761
:104DB00091F9B4E73046FCF71FFE20780528B4D9F6
:104DC000F8E70000003801405C0300205D0000208F
:104DD000206D61696E200D0A00000000000801408E
:104DE0005344BFA8B3F5CABCBBAFB3C9B9A6A3A10E
:104DF000200D0A00303A0000B9D2D4D8CAA7B0DCDE
:104E000021200D0A000000005344BFA8B3F5CABC1E
:104E1000BBAFCAA7B0DC21200D0A0000B9D2D4D89C
:104E2000B3C9B9A621200D0A00000000000C014002
:104E30004C6176615253434C6974652E616A65001A
:104E40006572726F72206C65206161616161616180
:104E50006161616161612025640000004661696CE7
:104E6000210A0A0053756363657373210A0A0000FF
:104E700004E000BF11F8013B00F8013B521EF9D2DB
:104E80007047C9B201E000F8011B521EFBD2704707
:104E900070B50546D0F82C020C460026A04210D072
:104EA000284600F06CF906000BD195F801020123A9
:104EB00022462946FEF78EFF08B1741E0126C5F86A
:104EC0002C42304670BD2DE9F04717460D4604468A
:104ED000022903D3D4F81402A84202D80220BDE864
:104EE000F08794F8001207F0FF084FF0010901293C
:104EF0001FD002294FD00329F0D1D4F8200200EBB3
:104F0000D5112046FFF7C4FF0028E8D140F2FF1179
:104F100001EA85010A194FF07043D17803EA016173
:104F2000394311700B0A53700B0C9370090ED1703A
:104F300041E0D4F8200205EB550600EB562120464F
:104F4000FFF7A6FF0028CAD1C6F30800761C20444C
:104F5000E90703D0017868F31F1100E039460170BA
:104F600084F80492D4F8200200EB56212046FFF783
:104F70008FFF0028B3D1C6F308012144EA0702D00D
:104F8000C7F3071205E00A78C7F3032302F0F00223
:104F90001A430A700FE0D4F8200200EB15212046D6
:104FA000FFF776FF00289AD1E9B204EB41013A0AF3
:104FB00081F800804A7084F8049290E72DE9F04768
:104FC00004008A4616D054F8047CD4F800903E1FA2
:104FD000564500D956462046FEF794F905468846C0
:104FE000324621465046FFF745FD40B1C0F80090DB
:104FF000BDE8F087BDE8F0470846FEF7B1B944E9DF
:10500000017955B129686A18211F8A4202D9611BAA
:10501000091F2960C5F80480EAE7024AC2F8008047
:10502000E6E70000C40000202DE9F0410F460646E7
:10503000022917D3D6F81402B84213D9002523E069
:1050400039463046FFF740FC040021D0012C09D03E
:10505000601C09D0002239463046FFF734FF0500B6
:1050600016D103E0022513E0012511E0D6F8100265
:10507000411C08D0401CC6F8100296F8050240F00A
:10508000010086F805022746D6F81402B842D7D8A0
:105090002846BDE8F081000001B582B06420009090
:1050A000012301AA02A90348FDF746F99DF804006F
:1050B0000EBD00000403002081760A0AC2760A0CA5
:1050C0000275090E4175704770B5044600F057F837
:1050D000050052D194F80002032846D194F8050245
:1050E000012842D1420200212046FFF7CAFE552086
:1050F00084F8FE01AA2084F8FF015220207060701D
:105100006120A0704121E170722284F8E42184F8CA
:10511000E52184F8E61184F8E701D4F8100284F858
:10512000E801010A84F8E911010C84F8EA11000E83
:1051300084F8EB01D4F80C0284F8EC01010A84F83D
:10514000ED11010C84F8EE11000E84F8EF01D4F893
:105150001C220123521CC4F82C2294F8010221467F
:10516000FEF752FE002084F80502002294F80102A6
:105170001146FEF721FE00B10125284670BD2DE93C
:10518000F041044690F80402002728B3D4F82C52CA
:1051900094F8010201232A462146FEF735FE08B1A4
:1051A000012719E0002084F80402D4F82002D4F882
:1051B0001812281A88420FD294F803620AE0D4F831
:1051C00018020123054494F801022A462146FEF7FD
:1051D0001BFE761E022EF2D23846BDE8F08110B5D5
:1051E00088B1D0F8001271B191F800225AB1B1F82B
:1051F0000622B0F80402824205D191F80102FEF7BE
:10520000F7FDC00700D0092010BD0000000000001D
:105210000000010203040607080900000000010263
:105220000304809A90B68EB78F80D2D3D4D8D7DEBD
:105230008E8F909292E299E3EAEB59999A9D9C9D08
:105240009E9FB5D6E0E9A5A5A6A7A8A9AAABAC21C3
:10525000AEAFB0B1B2B3B4B5B6B7B8B9BABBBCBDF6
:10526000BEBFC0C1C2C3C4C5C7C7C8C9CACBCCCDE5
:10527000CECFD0D1D2D3D4D5D6D7D8D9DADBDCDDD6
:10528000DEDFE0E1E2E3E5E5E6E7E7E9EAEBEDEDC5
:10529000EEEFF0F1F2F3F4F5F6F7F8F9FAFBFCFDB6
:1052A000FEFF00040002000180004000200010000A
:1052B00008000400020000000080004000200010F0
:1052C0000008004000200010000800040002000058
:1052D0004572726F723A20496E76616C696420661D
:1052E0006F726D6174207768656E2065786563758F
:1052F00074696E672070726F63657373207369726F
:10530000206F722073647220696E73747275637497
:10531000696F6E210A000000385300080000002069
:10532000CC000000B033000804540008CC0000207A
:10533000F4280000C0330008FF000000F20600005F
:10534000000000000000000001000000000000005C
:10535000000000000000000000000000000000004D
:10536000CC00002000000000000000000000000051
:10537000000101000000000000000000000000002B
:10538000000000000000000000000000000000001D
:10539000000000000000000000000000000000000D
:1053A00068656C6C6F2E7478740030312077726988
:1053B0007465206275666620746F207364200D0A20
:1053C000000000001D320008AD3200088B320008DA
:1053D000C13200083D32000800000000000000005B
:1053E00001000000100000000000000000A24A04BC
:1053F00000000000000000000000000000000000AD
:0454000000000000A8
:04000005080000ED02
:00000001FF
